{
  "abi": [
    {
      "inputs": [
        {
          "internalType": "address",
          "name": "_burnerWallet",
          "type": "address"
        }
      ],
      "stateMutability": "nonpayable",
      "type": "constructor"
    },
    {
      "anonymous": false,
      "inputs": [
        {
          "indexed": false,
          "internalType": "uint256",
          "name": "_roomId",
          "type": "uint256"
        }
      ],
      "name": "GameAbandoned",
      "type": "event"
    },
    {
      "anonymous": false,
      "inputs": [
        {
          "indexed": false,
          "internalType": "uint256",
          "name": "_roomId",
          "type": "uint256"
        },
        {
          "indexed": false,
          "internalType": "address",
          "name": "_creator",
          "type": "address"
        }
      ],
      "name": "GameCreated",
      "type": "event"
    },
    {
      "anonymous": false,
      "inputs": [
        {
          "indexed": false,
          "internalType": "uint256",
          "name": "_roomId",
          "type": "uint256"
        },
        {
          "indexed": false,
          "internalType": "address",
          "name": "_winner",
          "type": "address"
        }
      ],
      "name": "GameEnded",
      "type": "event"
    },
    {
      "anonymous": false,
      "inputs": [
        {
          "indexed": false,
          "internalType": "uint256",
          "name": "_roomId",
          "type": "uint256"
        }
      ],
      "name": "GamePaused",
      "type": "event"
    },
    {
      "anonymous": false,
      "inputs": [
        {
          "indexed": false,
          "internalType": "uint256",
          "name": "_roomId",
          "type": "uint256"
        }
      ],
      "name": "GameStarted",
      "type": "event"
    },
    {
      "anonymous": false,
      "inputs": [
        {
          "indexed": false,
          "internalType": "uint256",
          "name": "_roomId",
          "type": "uint256"
        }
      ],
      "name": "GameUnPaused",
      "type": "event"
    },
    {
      "anonymous": false,
      "inputs": [
        {
          "indexed": false,
          "internalType": "uint256",
          "name": "_roomId",
          "type": "uint256"
        },
        {
          "indexed": false,
          "internalType": "uint8",
          "name": "_itemId",
          "type": "uint8"
        },
        {
          "indexed": false,
          "internalType": "uint8",
          "name": "_tile",
          "type": "uint8"
        }
      ],
      "name": "ItemSpawned",
      "type": "event"
    },
    {
      "anonymous": false,
      "inputs": [
        {
          "indexed": true,
          "internalType": "address",
          "name": "previousOwner",
          "type": "address"
        },
        {
          "indexed": true,
          "internalType": "address",
          "name": "newOwner",
          "type": "address"
        }
      ],
      "name": "OwnershipTransferred",
      "type": "event"
    },
    {
      "anonymous": false,
      "inputs": [
        {
          "indexed": false,
          "internalType": "uint256",
          "name": "_roomId",
          "type": "uint256"
        },
        {
          "indexed": false,
          "internalType": "address",
          "name": "_player",
          "type": "address"
        }
      ],
      "name": "PlayerJoined",
      "type": "event"
    },
    {
      "anonymous": false,
      "inputs": [
        {
          "indexed": false,
          "internalType": "uint256",
          "name": "_roomId",
          "type": "uint256"
        },
        {
          "indexed": false,
          "internalType": "address",
          "name": "_player",
          "type": "address"
        }
      ],
      "name": "PlayerKilled",
      "type": "event"
    },
    {
      "anonymous": false,
      "inputs": [
        {
          "indexed": false,
          "internalType": "uint256",
          "name": "_roomId",
          "type": "uint256"
        },
        {
          "indexed": false,
          "internalType": "address",
          "name": "_player",
          "type": "address"
        }
      ],
      "name": "PlayerLeft",
      "type": "event"
    },
    {
      "anonymous": false,
      "inputs": [
        {
          "indexed": false,
          "internalType": "uint256",
          "name": "_roomId",
          "type": "uint256"
        },
        {
          "indexed": false,
          "internalType": "address",
          "name": "_player",
          "type": "address"
        },
        {
          "indexed": false,
          "internalType": "uint8",
          "name": "_destinationTile",
          "type": "uint8"
        }
      ],
      "name": "PlayerMoved",
      "type": "event"
    },
    {
      "anonymous": false,
      "inputs": [
        {
          "indexed": false,
          "internalType": "uint256",
          "name": "_roomId",
          "type": "uint256"
        },
        {
          "indexed": false,
          "internalType": "address",
          "name": "_player",
          "type": "address"
        }
      ],
      "name": "PlayerNotReady",
      "type": "event"
    },
    {
      "anonymous": false,
      "inputs": [
        {
          "indexed": false,
          "internalType": "uint256",
          "name": "_roomId",
          "type": "uint256"
        },
        {
          "indexed": false,
          "internalType": "address",
          "name": "_player",
          "type": "address"
        }
      ],
      "name": "PlayerPaused",
      "type": "event"
    },
    {
      "anonymous": false,
      "inputs": [
        {
          "indexed": false,
          "internalType": "uint256",
          "name": "_roomId",
          "type": "uint256"
        },
        {
          "indexed": false,
          "internalType": "address",
          "name": "_player",
          "type": "address"
        }
      ],
      "name": "PlayerReady",
      "type": "event"
    },
    {
      "anonymous": false,
      "inputs": [
        {
          "indexed": false,
          "internalType": "uint256",
          "name": "_roomId",
          "type": "uint256"
        },
        {
          "indexed": false,
          "internalType": "address",
          "name": "_player",
          "type": "address"
        }
      ],
      "name": "PlayerUnPaused",
      "type": "event"
    },
    {
      "anonymous": false,
      "inputs": [
        {
          "indexed": false,
          "internalType": "uint256",
          "name": "_roomId",
          "type": "uint256"
        },
        {
          "indexed": false,
          "internalType": "address",
          "name": "_winner",
          "type": "address"
        },
        {
          "indexed": false,
          "internalType": "uint256",
          "name": "_reward",
          "type": "uint256"
        }
      ],
      "name": "RewardSent",
      "type": "event"
    },
    {
      "inputs": [],
      "name": "MAP_HEIGHT",
      "outputs": [
        {
          "internalType": "uint8",
          "name": "",
          "type": "uint8"
        }
      ],
      "stateMutability": "view",
      "type": "function"
    },
    {
      "inputs": [],
      "name": "MAP_WIDTH",
      "outputs": [
        {
          "internalType": "uint8",
          "name": "",
          "type": "uint8"
        }
      ],
      "stateMutability": "view",
      "type": "function"
    },
    {
      "inputs": [],
      "name": "MAX_PLAYERS",
      "outputs": [
        {
          "internalType": "uint8",
          "name": "",
          "type": "uint8"
        }
      ],
      "stateMutability": "view",
      "type": "function"
    },
    {
      "inputs": [],
      "name": "TILE_COUNT",
      "outputs": [
        {
          "internalType": "uint8",
          "name": "",
          "type": "uint8"
        }
      ],
      "stateMutability": "view",
      "type": "function"
    },
    {
      "inputs": [
        {
          "internalType": "uint256",
          "name": "_roomId",
          "type": "uint256"
        }
      ],
      "name": "abandonGame",
      "outputs": [
        {
          "internalType": "bool",
          "name": "",
          "type": "bool"
        }
      ],
      "stateMutability": "nonpayable",
      "type": "function"
    },
    {
      "inputs": [],
      "name": "burnerWallet",
      "outputs": [
        {
          "internalType": "address",
          "name": "",
          "type": "address"
        }
      ],
      "stateMutability": "view",
      "type": "function"
    },
    {
      "inputs": [
        {
          "internalType": "uint256",
          "name": "_minStake",
          "type": "uint256"
        }
      ],
      "name": "createGame",
      "outputs": [],
      "stateMutability": "payable",
      "type": "function"
    },
    {
      "inputs": [
        {
          "internalType": "uint256",
          "name": "",
          "type": "uint256"
        }
      ],
      "name": "games",
      "outputs": [
        {
          "components": [
            {
              "internalType": "address",
              "name": "gameCreator",
              "type": "address"
            },
            {
              "internalType": "uint8",
              "name": "playersCount",
              "type": "uint8"
            },
            {
              "internalType": "uint8",
              "name": "itemCount",
              "type": "uint8"
            },
            {
              "internalType": "uint256",
              "name": "minStake",
              "type": "uint256"
            },
            {
              "internalType": "uint256",
              "name": "totalStaked",
              "type": "uint256"
            },
            {
              "internalType": "bool",
              "name": "hasStarted",
              "type": "bool"
            },
            {
              "internalType": "bool",
              "name": "hasEnded",
              "type": "bool"
            },
            {
              "internalType": "bool",
              "name": "gamePaused",
              "type": "bool"
            },
            {
              "internalType": "bool",
              "name": "gameAbandoned",
              "type": "bool"
            }
          ],
          "internalType": "struct Royale.GameInfo",
          "name": "info",
          "type": "tuple"
        }
      ],
      "stateMutability": "view",
      "type": "function"
    },
    {
      "inputs": [],
      "name": "houseFee",
      "outputs": [
        {
          "internalType": "uint8",
          "name": "",
          "type": "uint8"
        }
      ],
      "stateMutability": "view",
      "type": "function"
    },
    {
      "inputs": [
        {
          "internalType": "uint256",
          "name": "_roomId",
          "type": "uint256"
        }
      ],
      "name": "joinGame",
      "outputs": [],
      "stateMutability": "payable",
      "type": "function"
    },
    {
      "inputs": [
        {
          "internalType": "uint256",
          "name": "_roomId",
          "type": "uint256"
        }
      ],
      "name": "leaveGame",
      "outputs": [
        {
          "internalType": "bool",
          "name": "",
          "type": "bool"
        }
      ],
      "stateMutability": "nonpayable",
      "type": "function"
    },
    {
      "inputs": [
        {
          "internalType": "uint256",
          "name": "_roomId",
          "type": "uint256"
        },
        {
          "internalType": "enum Royale.Dir",
          "name": "_direction",
          "type": "uint8"
        },
        {
          "internalType": "address",
          "name": "_player",
          "type": "address"
        },
        {
          "internalType": "bool",
          "name": "_useBurner",
          "type": "bool"
        }
      ],
      "name": "movePlayer",
      "outputs": [],
      "stateMutability": "nonpayable",
      "type": "function"
    },
    {
      "inputs": [],
      "name": "owner",
      "outputs": [
        {
          "internalType": "address",
          "name": "",
          "type": "address"
        }
      ],
      "stateMutability": "view",
      "type": "function"
    },
    {
      "inputs": [
        {
          "internalType": "address",
          "name": "",
          "type": "address"
        }
      ],
      "name": "playerInGame",
      "outputs": [
        {
          "internalType": "uint256",
          "name": "",
          "type": "uint256"
        }
      ],
      "stateMutability": "view",
      "type": "function"
    },
    {
      "inputs": [
        {
          "internalType": "uint256",
          "name": "_roomId",
          "type": "uint256"
        },
        {
          "internalType": "address",
          "name": "_player",
          "type": "address"
        },
        {
          "internalType": "bool",
          "name": "_useBurner",
          "type": "bool"
        }
      ],
      "name": "playerPause",
      "outputs": [],
      "stateMutability": "nonpayable",
      "type": "function"
    },
    {
      "inputs": [
        {
          "internalType": "uint256",
          "name": "_roomId",
          "type": "uint256"
        },
        {
          "internalType": "address",
          "name": "_player",
          "type": "address"
        },
        {
          "internalType": "bool",
          "name": "_useBurner",
          "type": "bool"
        }
      ],
      "name": "playerUnPause",
      "outputs": [],
      "stateMutability": "nonpayable",
      "type": "function"
    },
    {
      "inputs": [],
      "name": "renounceOwnership",
      "outputs": [],
      "stateMutability": "nonpayable",
      "type": "function"
    },
    {
      "inputs": [
        {
          "internalType": "address",
          "name": "_burnerWallet",
          "type": "address"
        }
      ],
      "name": "setBurnerWallet",
      "outputs": [],
      "stateMutability": "nonpayable",
      "type": "function"
    },
    {
      "inputs": [
        {
          "internalType": "uint8",
          "name": "_houseFee",
          "type": "uint8"
        }
      ],
      "name": "setHouseFee",
      "outputs": [],
      "stateMutability": "nonpayable",
      "type": "function"
    },
    {
      "inputs": [
        {
          "internalType": "uint256",
          "name": "_roomId",
          "type": "uint256"
        },
        {
          "internalType": "address",
          "name": "_player",
          "type": "address"
        },
        {
          "internalType": "bool",
          "name": "_useBurner",
          "type": "bool"
        }
      ],
      "name": "setNotReady",
      "outputs": [],
      "stateMutability": "nonpayable",
      "type": "function"
    },
    {
      "inputs": [
        {
          "internalType": "uint256",
          "name": "_roomId",
          "type": "uint256"
        },
        {
          "internalType": "address",
          "name": "_player",
          "type": "address"
        },
        {
          "internalType": "bool",
          "name": "_useBurner",
          "type": "bool"
        }
      ],
      "name": "setReady",
      "outputs": [],
      "stateMutability": "nonpayable",
      "type": "function"
    },
    {
      "inputs": [
        {
          "internalType": "uint16",
          "name": "_startingFT",
          "type": "uint16"
        }
      ],
      "name": "setStartingFT",
      "outputs": [],
      "stateMutability": "nonpayable",
      "type": "function"
    },
    {
      "inputs": [
        {
          "internalType": "bool",
          "name": "_useBurnerWallet",
          "type": "bool"
        }
      ],
      "name": "setUseBurnerWallet",
      "outputs": [],
      "stateMutability": "nonpayable",
      "type": "function"
    },
    {
      "inputs": [
        {
          "internalType": "uint256",
          "name": "_roomId",
          "type": "uint256"
        }
      ],
      "name": "startGame",
      "outputs": [],
      "stateMutability": "payable",
      "type": "function"
    },
    {
      "inputs": [],
      "name": "starting_FT",
      "outputs": [
        {
          "internalType": "uint16",
          "name": "",
          "type": "uint16"
        }
      ],
      "stateMutability": "view",
      "type": "function"
    },
    {
      "inputs": [],
      "name": "toggleWorldPause",
      "outputs": [],
      "stateMutability": "nonpayable",
      "type": "function"
    },
    {
      "inputs": [
        {
          "internalType": "address",
          "name": "newOwner",
          "type": "address"
        }
      ],
      "name": "transferOwnership",
      "outputs": [],
      "stateMutability": "nonpayable",
      "type": "function"
    },
    {
      "inputs": [],
      "name": "useBurnerWallet",
      "outputs": [
        {
          "internalType": "bool",
          "name": "",
          "type": "bool"
        }
      ],
      "stateMutability": "view",
      "type": "function"
    },
    {
      "inputs": [],
      "name": "worldPaused",
      "outputs": [
        {
          "internalType": "bool",
          "name": "",
          "type": "bool"
        }
      ],
      "stateMutability": "view",
      "type": "function"
    }
  ],
  "bytecode": {
    "object": "0x6080346200012b57601f62002f4138819003918201601f19168301916001600160401b0383118484101762000130578084926020946040528339810103126200012b57516001600160a01b0390818116908190036200012b57600090815460405193339082167f8be0079c531659141344cd1fd0a4f28419497f9722a3daafe3b4186f6b6457e08580a36001600160b01b0319163361ffff60a01b191617601960a21b178255600180546003805461ffff19166102001790556001600160a81b031916909117600160a01b1790556002546801000000000000000081101562000117576001810190816002551015620001035760029052612dfa9081620001478239f35b634e487b7160e01b81526032600452602490fd5b634e487b7160e01b82526041600452602482fd5b600080fd5b634e487b7160e01b600052604160045260246000fdfe608080604052600436101561001357600080fd5b60003560e01c9081630ed469b8146122d057508063117a5b90146121d357806313a7dbdb146121b05780631af066bc1461200b57806328547f43146115355780633dbf0b5514610d315780633feef58a146113905780634367ab8e146113675780634411b3eb1461134b57806346cbb38f1461130b57806348e837b914610d525780635941905f14610d3657806359b7868114610d315780636bd3fbf914610c30578063715018a614610bd75780637512bb8f14610ba6578063801995e414610aa75780638da5cb5b14610a7e578063989b820014610a36578063acd7d47b14610a10578063af3e9420146109eb578063b5b9cb8f146109a8578063b716e2bc146107e4578063c02cb7bc1461069c578063e5ed1d591461058d578063ec6a7c9f14610553578063efaa55a014610271578063f2fde38b146101a85763fa00e8541461015e57600080fd5b346101a35760203660031901126101a3576004358015158091036101a3576101846123e0565b6001805460ff60a01b191660a09290921b60ff60a01b16919091179055005b600080fd5b346101a35760203660031901126101a3576101c161237b565b6101c96123e0565b6001600160a01b0390811690811561021d57600054826bffffffffffffffffffffffff60a01b821617600055167f8be0079c531659141344cd1fd0a4f28419497f9722a3daafe3b4186f6b6457e0600080a3005b60405162461bcd60e51b815260206004820152602660248201527f4f776e61626c653a206e6577206f776e657220697320746865207a65726f206160448201526564647265737360d01b6064820152608490fd5b60203660031901126101a35760043560ff6003916102928284541615612438565b6102ab60016102a0836122f1565b500154341015612469565b3360005260046020526102c36040600020541561249a565b816102cd826122f1565b505460a01c1615158061053a575b15610510576102f882846102ee846122f1565b500154161561252a565b6103138284610306846122f1565b50015460081c161561255b565b61032e8284610321846122f1565b50015460181c161561258c565b6002610339826122f1565b5001918254933485018095116104fa577f87969bc7faf902221a147b95ceba76e011c5efb0339a0a8ee7a2bb82d9cfbbd6946104da94556103a661037c846122f1565b5061038c84825460a01c166124cb565b815460ff60a01b191660a09190911b60ff60a01b16179055565b816103b0846122f1565b505460a01c16916103d66103c3856122f1565b5060686103cf866124dc565b91016125bd565b81546001600160a01b0391851b91821b19163390911b17905560005460a01c61ffff1661043461041b610408876122f1565b50606c610414886124dc565b91016125cd565b819391549060031b9161ffff809116831b921b19161790565b905533600052600460205283604060002055600091600184146104f1575b600284146104e8575b83146104df575b6104a782936104806104c2946004610479896122f1565b500161251a565b50805460ff191682179055606d6104a0610499886122f1565b50926124dc565b91016124ef565b919093169083549060ff809160031b9316831b921b19161790565b90556040805191825233602083015290918291820190565b0390a1005b601a9150610462565b603e925061045b565b60429250610452565b634e487b7160e01b600052601160045260246000fd5b60405162461bcd60e51b8152602060048201526002602482015261114d60f21b6044820152606490fd5b50600482610547836122f1565b505460a01c16106102db565b346101a35760203660031901126101a3576001600160a01b0361057461237b565b1660005260046020526020604060002054604051908152f35b60203660031901126101a3576004356105ab60ff6003541615612438565b600160ff6105b8836122f1565b505460a01c161115610672576105cd81612898565b156106475760208161060660ff60036102ee7f50ad08f58a27f2851d7e3a1b3a6a46b290f2ce677e99642d30ff639721e77790966122f1565b61061660ff6003610321846122f1565b610634610622826122f1565b50546001600160a01b03163314612866565b61063d816128f1565b50604051908152a1005b60405162461bcd60e51b815260206004820152600360248201526204531360ec1b6044820152606490fd5b60405162461bcd60e51b8152602060048201526002602482015261453960f01b6044820152606490fd5b346101a35760203660031901126101a35760043560ff6003916106c28284541615612438565b6106d082846102ee846122f1565b6106de8284610321846122f1565b6106e7816122f1565b50546001600160a01b0393906107009085163314612866565b61071761070c836122f1565b505485163314612866565b60005b610723836122f1565b505060048482161015610787576107808161077b60008080808b610755600499606861074e8e6122f1565b50016125bd565b9054908b1b1c1660016107678c6122f1565b500154905af16107756127d9565b50612824565b6124cb565b905061071a565b7fc6cdad3b3d7abda636116a8e94d054f37e923a63418e338faefe22d5cd582ab2602084846107b582612ccc565b506107bf826122f1565b5001805463ff00000019166301000000179055604051908152a1602060405160018152f35b346101a3576107f236612391565b9060ff91610804836003541615612438565b80156109a257815b60018060a01b0380911660005260046020528161082f86604060002054146125e9565b610975575b506108656108438284876126c9565b61085085821615156125e9565b607061085e610499886122f1565b910161264d565b8482549160031b1b1916905560001461094a576108be7f673e3bb612b39a63ad9bbe1dac33c3246f605ca31d52b00542f59e5ef96ecf32915b604080518681526001600160a01b03909216602083015290918291820190565b0390a1806108cb836122f1565b505460a01c16816108db8461273e565b1614159081610930575b506108ec57005b602081600361091b7fd89f8445e94a8e31afc10a82c48d2518eff9f4efc746fdf7b029c28e3fc5463a946122f1565b5001805462ff000019169055604051908152a1005b9050600361093d836122f1565b50015460101c16826108e5565b507f673e3bb612b39a63ad9bbe1dac33c3246f605ca31d52b00542f59e5ef96ecf326108be3361089e565b61099090600154858160a01c169182610996575b505061261b565b84610834565b16331490508680610989565b3361080c565b346101a35760203660031901126101a3576109c161237b565b6109c96123e0565b600180546001600160a01b0319166001600160a01b0392909216919091179055005b346101a35760003660031901126101a357602061ffff60005460a01c16604051908152f35b346101a35760003660031901126101a357602060ff60015460a01c166040519015158152f35b346101a35760203660031901126101a35760043561ffff811681036101a357610a5d6123e0565b6000805461ffff60a01b191660a09290921b61ffff60a01b16919091179055005b346101a35760003660031901126101a3576000546040516001600160a01b039091168152602090f35b346101a3577f78c7e5cc1bf7036b758b360d6ff5bf9397ea6426ba5043c4714ef8cbbc3d0e9c610ad636612391565b610ae560ff6003541615612438565b8015610ba057815b60018060a01b03809116600052600460205281610b1085604060002054146125e9565b610b7f575b50610b40610b248284866126c9565b610b3260ff821615156125e9565b606f61085e610499876122f1565b60ff82549160031b1b19169055600014610b7757905b604080519182526001600160a01b03909216602082015290819081016104da565b503390610b56565b610b9a9060015460ff8160a01c16918261099657505061261b565b84610b15565b33610aed565b346101a35760003660031901126101a357610bbf6123e0565b60035460ff80821615169060ff191617600355600080f35b346101a35760003660031901126101a357610bf06123e0565b600080546001600160a01b0319811682556001600160a01b03167f8be0079c531659141344cd1fd0a4f28419497f9722a3daafe3b4186f6b6457e08280a3005b346101a3577f6ca87004dea1dbeec045b0dc2f98a5c0375f003f7948b77a694ebd6f22682a80610c5f36612391565b610c6e60ff6003541615612438565b8015610d2b57815b60018060a01b03809116600052600460205281610c9985604060002054146125e9565b610d0a575b50610ce3610ccc610cb08385876126c9565b610cbe60ff821615156125e9565b606f61085e610499886122f1565b819291549060031b9060ff6001831b921b19161790565b905515610b7757604080519283526001600160a01b039091166020830152819081016104da565b610d259060015460ff8160a01c16918261099657505061261b565b84610c9e565b33610c76565b6123c4565b346101a35760003660031901126101a357602060405160648152f35b60203660031901126101a357610d6d60ff6003541615612438565b610d7b600435341015612469565b336000526004602052610d936040600020541561249a565b604051610d9f81612342565b604051610dab81612342565b6000815260006020820152600060408201526000606082015260006080820152600060a0820152600060c0820152600060e082015260006101008201528152604051610c80908181019167ffffffffffffffff92828110848211176112c75760405260005b8181106112dd5750506020830152604051610e2a8161235f565b60803682376040830152604051610e408161235f565b608036823760608301526040519060e08201908111828210176112c75760405260e03682376080820152604051610e768161235f565b608036823760a0820152604051610e8c8161235f565b608036823760c0820152604051610ea28161235f565b608036823760e0820152604051610eb88161235f565b6080368237610100820152338151523460808251015260016020825101526004356060825101523360408201515261ffff60005460a01c16606082015152600254680100000000000000008110156112c757806001610f1a92016002556122f1565b6112b157815180518254602080840151604085015160ff60a81b60a89190911b166001600160b01b03199093166001600160a01b039094169390931760a093841b60ff60a01b161791909117845560608301516001850155608083015160028501559082015160038401805460c085015160e08601516101009096015163ffffffff1990921660ff941515949094169390931792151560081b61ff00169290921793151560101b62ff0000169390931790151560181b63ff000000161790915582015160048201906000905b6064821061127a57505050604082015160005b6004811061125a575050606082015160009060005b60048110611229575050606c82015560808201519160009260005b600781106111fb575050606d928383015560a081015160009060005b600481106111ce575050606e83015560c081015160009060005b600481106111a1575050606f83015560e081015160009060005b600481106111745750506070830155610100015160005b6004811061115d578360025460001981019081116104fa5760ff169060005b600760ff82161061112a577fc3e0f84839dc888c892a013d10c8f9d6dc05a21a879d0ce468ca558013e9121c60408484336000526004602052818360002055601a6110f9836122f1565b5001805460ff1916600117905561110f826122f1565b5001805460ff191660161790558151908152336020820152a1005b80611143611158928461113c876122f1565b50016124ef565b60ff82549160031b1b908119161790556124cb565b6110af565b600190602083519301926071828601015501611090565b909160206111986001928486511515919060ff809160031b9316831b921b19161790565b93019101611079565b909160206111c56001928486511515919060ff809160031b9316831b921b19161790565b9301910161105f565b909160206111f26001928486511515919060ff809160031b9316831b921b19161790565b93019101611045565b909360206112206001928460ff895116919060ff809160031b9316831b921b19161790565b95019101611029565b9091602061125160019261ffff8651169085851b60031b9161ffff809116831b921b19161790565b9301910161100e565b81516001600160a01b031660688285010155602090910190600101610ff9565b80518051845460209283015161ff0090151560081b1660ff90921661ffff1990911617178455600191829101930191019091610fe6565b634e487b7160e01b600052600060045260246000fd5b634e487b7160e01b600052604160045260246000fd5b604051906040820191808310868411176112c757602092604052600081526000838201528185015201610e10565b346101a35760203660031901126101a35760043560ff811681036101a3576113316123e0565b61ff006003549160081b169061ff00191617600355600080f35b346101a35760003660031901126101a357602060405160048152f35b346101a35760003660031901126101a3576001546040516001600160a01b039091168152602090f35b346101a35760203660031901126101a3576004356113ad816122f1565b5061150c60ff926113c584600380950154161561252a565b3360005260046020526113de81604060002054146125e9565b6113ff600080808060016113f1876122f1565b500154335af16107756127d9565b61141b61140b826122f1565b5061038c86825460a01c16612856565b606d6104a061049961142c84612666565b9361143a8886161515612866565b61146a611455611449836122f1565b5060686103cf896124dc565b81549060018060a01b039060031b1b19169055565b611476610408826122f1565b61ffff8254918a1b1b1916905561149b61148f826122f1565b50606f61085e886124dc565b898254918a1b1b191690556114be6114b2826122f1565b50607061085e886124dc565b898254918a1b1b191690556114fe6114d5826122f1565b5060048a6114f06114e5866122f1565b50896104a08c6124dc565b9054908c1b1c16910161251a565b50805460ff191690556122f1565b81939154921b1b9081191617905533600052600460205260006040812055602060405160018152f35b346101a35760803660031901126101a35760046024351015806101a3576044356001600160a01b03811690036101a3576064351515606435036101a35761158160ff6003541615612438565b600160ff60036115926004356122f1565b50015416151503611fe15760643515611fdb576044355b60018060a01b031660005260046020526115cb600435604060002054146125e9565b6115e960ff6115e16064356044356004356126c9565b161515612866565b600160ff6116176115fb6004356122f1565b50606e61085e6116126064356044356004356126c9565b6124dc565b90549060031b1c16151503611fb05760ff60036116356004356122f1565b50015460101c16611f855761165260ff60036103066004356122f1565b606435611f53575b61166b6064356044356004356126c9565b9060ff61168861167c6004356122f1565b50606d6104a0866124dc565b90549060031b1c1661169b602435612b47565b60000b8160000b0191607f198312607f8413176104fa576116c1606460ff851610612b15565b60ff600a8306161580611f44575b611f2a575b600960ff600a840616149081611f02575b50611eea575b60ff6117086116fb6004356122f1565b506004858416910161251a565b505460081c16611ebf5760ff6117226116fb6004356122f1565b505416611986576117a57f689254b753ca60742e68c59d0d98cc6d231f56da7de5fa9040dadc96ab3b0c50936117c39261178e6117716117636004356122f1565b5060048860ff16910161251a565b509160ff199260ff851684825416179055600461047981356122f1565b50908154169055606d6104a06104996004356122f1565b60ff84939293169083549060ff809160031b9316831b921b19161790565b90556064351561197f57604435905b6040805160043581526001600160a01b0393909316602084015260ff9190911690820152606090a15b600160ff61180a6004356122f1565b505460a01c161461181757005b60036118246004356122f1565b5001805461ff00191661010017905560005b6118416004356122f1565b5050600460ff8216101561197957600160ff61186b83606e6118646004356122f1565b500161264d565b90549060031b1c1615151461188857611883906124cb565b611836565b61189990606861074e6004356122f1565b905460408051600435815260039390931b9190911c6001600160a01b031660208301819052917f3d5fcd8fa3235aeb3897f25c8ea49989174981afcb01b9d03189d1056a16775b9190a160026118f06004356122f1565b50015460ff60035460081c1660640360ff81116104fa5760ff16908181029181830414901517156104fa577f2d2c3375da5b0a5f617bbcefa38e413a9ef5f70e50d0f9c5f6cc0adc3fa3577991606460609204611957600080808085875af16107756127d9565b60405191600435835260208301526040820152a15b611977600435612ccc565b005b5061196c565b33906117d2565b50600360ff6119996116fb6004356122f1565b5054161115611ca2576119db6119b06004356122f1565b50606d6104a060ff6119d36119c66004356122f1565b506004888416910161251a565b5054166124dc565b60ff82549160031b1b9081191617905560405160646020820142815244604084015260ff60f81b8460f81b16606084015260418352611a198361235f565b91519091200660000b60311901607f198112607f8213176104fa5761ffff611a51611a456004356122f1565b50606c610414876124dc565b90549060031b1c1660010b90617fff198160000b830112617fff8260000b840113176104fa57600081810b830160010b1215611c9957505060005b611aa6611a9a6004356122f1565b50606c610414866124dc565b815461ffff84811694939260031b85811b91901b1990911617905560010b15611c3a575b611bb957611aeb91506004611adf81356122f1565b509160ff16910161251a565b50805460ff19169055611b13611b026004356122f1565b5061038c60ff825460a01c16612856565b60643515611ba157600080516020612da5833981519152611b536044355b6040805160043581526001600160a01b03909216602083015290918291820190565b0390a15b611b90611b656004356122f1565b50611b7660ff825460a81c16612856565b815460ff60a81b191660a89190911b60ff60a81b16179055565b611b9b6004356128f1565b506117fb565b600080516020612da5833981519152611b5333611b31565b7f689254b753ca60742e68c59d0d98cc6d231f56da7de5fa9040dadc96ab3b0c509160ff611beb6116fb6004356122f1565b50911660ff19825416179055606435600014611c3357604435905b6040805160043581526001600160a01b0393909316602084015260ff9190911690820152606090a1611b57565b3390611c06565b611c54611c486004356122f1565b50606e61085e866124dc565b60ff82549160031b1b19169055611c6f611b026004356122f1565b611c8b611c7d6004356122f1565b5060048460ff16910161251a565b50805460ff19169055611aca565b60000b01611a8c565b600360ff611cb46116fb6004356122f1565b5054161115611cc5575b50506117fb565b60ff611ce2611cd56004356122f1565b506004848416910161251a565b50541691611cf38382600435612b8a565b60ff808316911614600014611e1a5750600080516020612da5833981519152611dd3611da77f689254b753ca60742e68c59d0d98cc6d231f56da7de5fa9040dadc96ab3b0c5094611d54611d486004356122f1565b50606c610414846124dc565b61ffff82549160031b1b19169055611d7c611d706004356122f1565b50606e61085e846124dc565b60ff82549160031b1b19169055611d97611b026004356122f1565b60686103cf6104996004356122f1565b905460408051600435815260039390931b9190911c6001600160a01b0316602083015290918291820190565b0390a160643515611e1357604435905b6040805160043581526001600160a01b0393909316602084015260ff9190911690820152606090a15b8080611cbe565b3390611de3565b9050611e4d9150611e2f611d486004356122f1565b61ffff82549160031b1b19169055606e61085e6104996004356122f1565b60ff82549160031b1b19169055611e68611b026004356122f1565b60643515611ea7576040805160043581526001600160a01b03604435166020820152600080516020612da583398151915291819081015b0390a1611e0c565b600080516020612da5833981519152611e9f33611b31565b60405162461bcd60e51b815260206004820152600360248201526245313560e81b6044820152606490fd5b611efd60ff600a84821606161515612b15565b6116eb565b9050611f1457600360243514846116e5565b634e487b7160e01b600052602160045260246000fd5b611f3f600960ff600a86821606161415612b15565b6116d4565b505060006001602435146116cf565b611f6d60015460ff8160a01c169081611f72575b5061261b565b61165a565b6001600160a01b03163314905083611f67565b60405162461bcd60e51b815260206004820152600360248201526208a62760eb1b6044820152606490fd5b60405162461bcd60e51b815260206004820152600360248201526245313360e81b6044820152606490fd5b336115a9565b60405162461bcd60e51b815260206004820152600260248201526108a760f31b6044820152606490fd5b346101a35761201936612391565b9060ff9161202b836003541615612438565b80156121aa57815b60018060a01b0380911660005260046020528161205686604060002054146125e9565b61218a575b50612088610ccc61206d8385886126c9565b61207a86821615156125e9565b607061085e610499896122f1565b90551561215f57604080518481526001600160a01b0390921660208301527f2b02cf7e1a7798ae84c4e889779d06feaed067d1a58cdbc014f6a98fb619f2bb9190819081015b0390a1806120db836122f1565b505460a01c16816120eb8461273e565b16149081612144575b506120fb57005b602081600361212a7f60f26477008aa4c656f8e1e30cdc74fa0be1c07ff15eead918e9614cdca8d166946122f1565b5001805462ff0000191662010000179055604051908152a1005b90506003612151836122f1565b50015460101c1615826120f4565b507f2b02cf7e1a7798ae84c4e889779d06feaed067d1a58cdbc014f6a98fb619f2bb6120ce3361089e565b6121a490600154858160a01c16918261099657505061261b565b8461205b565b33612033565b346101a35760003660031901126101a357602060ff600354166040519015158152f35b346101a35760203660031901126101a3576004356002548110156101a3576121fd610120916122f1565b5060405161220a81612342565b81549160018060a01b03831692838352602083019060ff808260a01c16835280604086019260a81c1682526001840154936060860194855260036002820154916080880192835201549460a08701928087161515845260c0880194818860081c16151586528160e08a0197818a60101c161515895281610100809c019a60181c1615158a526040519b8c52511660208b01525116604089015251606088015251608087015251151560a086015251151560c085015251151560e084015251151590820152f35b346101a35760003660031901126101a35760209060ff60035460081c168152f35b60025481101561232c576075906002600052027f405787fa12a823e0f2b7631cc41b3ba8828b3321ca811111fa75cd3aa3bb5ace0190600090565b634e487b7160e01b600052603260045260246000fd5b610120810190811067ffffffffffffffff8211176112c757604052565b6080810190811067ffffffffffffffff8211176112c757604052565b600435906001600160a01b03821682036101a357565b60609060031901126101a357600435906024356001600160a01b03811681036101a3579060443580151581036101a35790565b346101a35760003660031901126101a3576020604051600a8152f35b6000546001600160a01b031633036123f457565b606460405162461bcd60e51b815260206004820152602060248201527f4f776e61626c653a2063616c6c6572206973206e6f7420746865206f776e65726044820152fd5b1561243f57565b60405162461bcd60e51b8152602060048201526002602482015261453160f01b6044820152606490fd5b1561247057565b60405162461bcd60e51b8152602060048201526002602482015261229960f11b6044820152606490fd5b156124a157565b60405162461bcd60e51b8152602060048201526002602482015261453360f01b6044820152606490fd5b60ff1660ff81146104fa5760010190565b60ff6000199116019060ff82116104fa57565b919091600783101561232c57601f908360051c01921690565b60ff60019116019060ff82116104fa57565b606482101561232c570190600090565b1561253157565b60405162461bcd60e51b8152602060048201526002602482015261453560f01b6044820152606490fd5b1561256257565b60405162461bcd60e51b8152602060048201526002602482015261229b60f11b6044820152606490fd5b1561259357565b60405162461bcd60e51b8152602060048201526002602482015261453760f01b6044820152606490fd5b600482101561232c570190600090565b919091600483101561232c57601e908360041c019260011b1690565b156125f057565b60405162461bcd60e51b815260206004820152600360248201526245313160e81b6044820152606490fd5b1561262257565b60405162461bcd60e51b815260206004820152600360248201526245313760e81b6044820152606490fd5b919091600483101561232c57601f908360051c01921690565b60005b612672826122f1565b5050600460ff821610156126c25761268f81606861074e856122f1565b905460039190911b1c6001600160a01b031633146126b5576126b0906124cb565b612669565b6126bf9150612508565b90565b5050600090565b9160005b6126d6846122f1565b5050600460ff82161015612735576126f381606861074e876122f1565b9054831561272e5784905b60018060a01b038092169260031b1c16146127215761271c906124cb565b6126cd565b9150506126bf9150612508565b33906126fe565b50505050600090565b6000805b61274b836122f1565b505060ff600481831610156127d2578061276a836070611864886122f1565b9290600192839154600395861b1c1615151492836127ae575b505050612799575b612794906124cb565b612742565b906127a6612794916124cb565b91905061278b565b909192506127c184606e611864896122f1565b9054911b1c16151514388080612783565b5050905090565b3d1561281f5767ffffffffffffffff903d8281116112c75760405192601f8201601f19908116603f01168401908111848210176112c75760405282523d6000602084013e565b606090565b1561282b57565b60405162461bcd60e51b815260206004820152600360248201526222989b60e91b6044820152606490fd5b60ff1680156104fa576000190190565b1561286d57565b60405162461bcd60e51b815260206004820152600360248201526222989960e91b6044820152606490fd5b6000805b6128a5836122f1565b5060ff80915460a01c1681831610156128e8576128c782606f611864876122f1565b90549060031b1c16156128e2576128dd906124cb565b61289c565b50905090565b50505050600190565b6128fa816122f1565b505490612906816122f1565b509060ff91828060a895861c16915460a01c16038281116104fa5761292a906124dc565b600081841615612a6a57505b90600493845b8481166007811015612a5e578590612953856122f1565b509088838061296687606d8097016124ef565b90549060031b1c1614612986575b50505050612981906124cb565b61293c565b92610479612a026129e6877f7fa8af5a083dce9776f1c477855a76d7d16c984c6b39ac52003310cd5e71c35e96866129d28d612a419c9f9b6129ca60609b83612a71565b9889926122f1565b509060ff1982541617905561113c8c6122f1565b93909216809383549060ff809160031b9316831b921b19161790565b9055612a1f612a10886122f1565b50611b768b82548a1c166124cb565b612a2888612508565b9060408a8151938a8552166020840152820152a1612856565b9284841615612a535784388088612974565b505050505050600190565b50505050505050600190565b9050612936565b612a7b8282612ab0565b9160ff612a8d846004610479866122f1565b505416612a9957505090565b909150600881018091116104fa576126bf91612a71565b60ff6064604051602081019042825244604082015285606082015260608152612ad88161235f565b51902006169160ff612aef846004610479866122f1565b505460081c16612afe57505090565b909150600881018091116104fa576126bf91612ab0565b15612b1c57565b60405162461bcd60e51b8152602060048201526003602482015262114c4d60ea1b6044820152606490fd5b6004811015611f145760028103612b5e5750600a90565b80612b6a575060091990565b60018103612b79575060001990565b600303612b8557600190565b600090565b919091612b99611a9a826122f1565b919061ffff928391549060031b1c169180612bb6610408846122f1565b90549060031b1c1683018181116104fa5716908115612c7557670de0b6b3a7640000928381029381850414811517156104fa5768056bc75e2d631000000292808404606414901517156104fa57604051906020820190428252446040840152606083015260ff60f81b808760f81b1660808401528560f81b1660818301526062825260a082019180831067ffffffffffffffff8411176112c7576064926040525190200691600183018093116104fa570410612c70575090565b905090565b60405162461bcd60e51b815260206004820152602960248201527f6469766973696f6e206279207a65726f2077696c6c20726573756c7420696e2060448201526834b73334b734ba3c9760b91b6064820152608490fd5b90612cd6826122f1565b50546001600160a01b039190612cef9083163314612866565b60005b612cfb846122f1565b505060048060ff83161015612d9a5790838082612d5b9488612d1c816122f1565b5091612d2c8460688095016125bd565b959054600396871b1c1660005260209080825260409183836000205414612d60575b50505050505050506124cb565b612cf2565b612d8d9761145597612d78888861074e6000996122f1565b9054911b1c1684525281205561074e896122f1565b8338828188818080612d4e565b505091505060019056fe17bbddf7564415da2a525f1a441df1385857f5438a6c5836a1a5d71fa1c1bb8ca2646970667358221220322fb37ee583c1b388bc129eaf2f8d628b0e6dead331e277f04740e6fc31df1c64736f6c63430008120033",
    "linkReferences": {}
  },
  "methodIdentifiers": {
    "MAP_HEIGHT()": "59b78681",
    "MAP_WIDTH()": "3dbf0b55",
    "MAX_PLAYERS()": "4411b3eb",
    "TILE_COUNT()": "5941905f",
    "abandonGame(uint256)": "c02cb7bc",
    "burnerWallet()": "4367ab8e",
    "createGame(uint256)": "48e837b9",
    "games(uint256)": "117a5b90",
    "houseFee()": "0ed469b8",
    "joinGame(uint256)": "efaa55a0",
    "leaveGame(uint256)": "3feef58a",
    "movePlayer(uint256,uint8,address,bool)": "28547f43",
    "owner()": "8da5cb5b",
    "playerInGame(address)": "ec6a7c9f",
    "playerPause(uint256,address,bool)": "1af066bc",
    "playerUnPause(uint256,address,bool)": "b716e2bc",
    "renounceOwnership()": "715018a6",
    "setBurnerWallet(address)": "b5b9cb8f",
    "setHouseFee(uint8)": "46cbb38f",
    "setNotReady(uint256,address,bool)": "801995e4",
    "setReady(uint256,address,bool)": "6bd3fbf9",
    "setStartingFT(uint16)": "989b8200",
    "setUseBurnerWallet(bool)": "fa00e854",
    "startGame(uint256)": "e5ed1d59",
    "starting_FT()": "af3e9420",
    "toggleWorldPause()": "7512bb8f",
    "transferOwnership(address)": "f2fde38b",
    "useBurnerWallet()": "acd7d47b",
    "worldPaused()": "13a7dbdb"
  },
  "id": 20
}